{
    "_format": "hh-sol-artifact-1",
    "contractName": "ProfitThePonzi",
    "sourceName": "contracts/ProfitThePonzi.sol",
    "abi": [
        {
            "inputs": [],
            "name": "AccountIsNotAWinner",
            "type": "error"
        },
        {
            "inputs": [],
            "name": "AmountUnderMinBet",
            "type": "error"
        },
        {
            "inputs": [],
            "name": "InvalidTicketNumber",
            "type": "error"
        },
        {
            "inputs": [],
            "name": "LotteryNumberAlreadySold",
            "type": "error"
        },
        {
            "inputs": [],
            "name": "MaxAmountOfTickets",
            "type": "error"
        },
        {
            "inputs": [],
            "name": "NotTheOwner",
            "type": "error"
        },
        {
            "anonymous": false,
            "inputs": [
                {
                    "indexed": true,
                    "internalType": "address",
                    "name": "buyer",
                    "type": "address"
                },
                {
                    "indexed": true,
                    "internalType": "uint256",
                    "name": "ticketNumber",
                    "type": "uint256"
                }
            ],
            "name": "BoughtTicket",
            "type": "event"
        },
        {
            "anonymous": false,
            "inputs": [
                {
                    "indexed": true,
                    "internalType": "address",
                    "name": "winner",
                    "type": "address"
                },
                {
                    "indexed": true,
                    "internalType": "uint256",
                    "name": "vaultAmount",
                    "type": "uint256"
                }
            ],
            "name": "Winner",
            "type": "event"
        },
        {
            "anonymous": false,
            "inputs": [
                {
                    "indexed": true,
                    "internalType": "address",
                    "name": "winner",
                    "type": "address"
                },
                {
                    "indexed": true,
                    "internalType": "uint256",
                    "name": "amountWitdrawed",
                    "type": "uint256"
                }
            ],
            "name": "Withdrawal",
            "type": "event"
        },
        {
            "inputs": [],
            "name": "amountOfTickets",
            "outputs": [
                {
                    "internalType": "uint256",
                    "name": "",
                    "type": "uint256"
                }
            ],
            "stateMutability": "view",
            "type": "function"
        },
        {
            "inputs": [
                {
                    "internalType": "uint256",
                    "name": "_ticketNumber",
                    "type": "uint256"
                }
            ],
            "name": "buyTicket",
            "outputs": [],
            "stateMutability": "payable",
            "type": "function"
        },
        {
            "inputs": [
                {
                    "internalType": "uint256",
                    "name": "_ticketNumber",
                    "type": "uint256"
                }
            ],
            "name": "buyerOfTicket",
            "outputs": [
                {
                    "internalType": "address",
                    "name": "",
                    "type": "address"
                }
            ],
            "stateMutability": "view",
            "type": "function"
        },
        {
            "inputs": [],
            "name": "getBalance",
            "outputs": [
                {
                    "internalType": "uint256",
                    "name": "",
                    "type": "uint256"
                }
            ],
            "stateMutability": "view",
            "type": "function"
        },
        {
            "inputs": [],
            "name": "getJackpot",
            "outputs": [
                {
                    "internalType": "uint256",
                    "name": "",
                    "type": "uint256"
                }
            ],
            "stateMutability": "view",
            "type": "function"
        },
        {
            "inputs": [],
            "name": "getSoldTickets",
            "outputs": [
                {
                    "internalType": "uint256[10]",
                    "name": "_soldTickets",
                    "type": "uint256[10]"
                }
            ],
            "stateMutability": "view",
            "type": "function"
        },
        {
            "inputs": [],
            "name": "jackpot",
            "outputs": [
                {
                    "internalType": "uint256",
                    "name": "",
                    "type": "uint256"
                }
            ],
            "stateMutability": "view",
            "type": "function"
        },
        {
            "inputs": [
                {
                    "internalType": "address",
                    "name": "",
                    "type": "address"
                },
                {
                    "internalType": "uint256",
                    "name": "",
                    "type": "uint256"
                }
            ],
            "name": "lotteryOwners",
            "outputs": [
                {
                    "internalType": "uint256",
                    "name": "",
                    "type": "uint256"
                }
            ],
            "stateMutability": "view",
            "type": "function"
        },
        {
            "inputs": [
                {
                    "internalType": "uint256",
                    "name": "",
                    "type": "uint256"
                }
            ],
            "name": "lotteryPlayers",
            "outputs": [
                {
                    "internalType": "address",
                    "name": "",
                    "type": "address"
                }
            ],
            "stateMutability": "view",
            "type": "function"
        },
        {
            "inputs": [
                {
                    "internalType": "uint256",
                    "name": "",
                    "type": "uint256"
                }
            ],
            "name": "lotteryTickets",
            "outputs": [
                {
                    "internalType": "address",
                    "name": "",
                    "type": "address"
                }
            ],
            "stateMutability": "view",
            "type": "function"
        },
        {
            "inputs": [
                {
                    "internalType": "address",
                    "name": "",
                    "type": "address"
                }
            ],
            "name": "pendingWinners",
            "outputs": [
                {
                    "internalType": "uint256",
                    "name": "",
                    "type": "uint256"
                }
            ],
            "stateMutability": "view",
            "type": "function"
        },
        {
            "inputs": [],
            "name": "retrieveLoot",
            "outputs": [],
            "stateMutability": "payable",
            "type": "function"
        },
        {
            "inputs": [],
            "name": "soldTicketsCounter",
            "outputs": [
                {
                    "internalType": "uint256",
                    "name": "_value",
                    "type": "uint256"
                }
            ],
            "stateMutability": "view",
            "type": "function"
        },
        {
            "inputs": [],
            "name": "superJackpot",
            "outputs": [
                {
                    "internalType": "uint256",
                    "name": "",
                    "type": "uint256"
                }
            ],
            "stateMutability": "view",
            "type": "function"
        },
        {
            "inputs": [
                {
                    "internalType": "address",
                    "name": "_buyer",
                    "type": "address"
                }
            ],
            "name": "ticketsBoughtBy",
            "outputs": [
                {
                    "internalType": "uint256[]",
                    "name": "",
                    "type": "uint256[]"
                }
            ],
            "stateMutability": "view",
            "type": "function"
        }
    ],
    "bytecode": "0x608060405234801561001057600080fd5b506119bd806100206000396000f3fe6080604052600436106100e85760003560e01c80639226b0ff1161008a578063f408ed6c11610059578063f408ed6c14610311578063f6c9ad381461033c578063f9b93a1d14610346578063fb3c46bb14610383576100e8565b80639226b0ff146102415780639329066c1461027e578063e74579b1146102a9578063e886cd14146102e6576100e8565b80633e0a51d4116100c65780633e0a51d4146101805780634ff8b4fc146101bd57806367dd74ca146101fa5780636b31ee0114610216576100e8565b806301a4dc74146100ed57806312065fe01461012a5780632aa51bdf14610155575b600080fd5b3480156100f957600080fd5b50610114600480360381019061010f9190611470565b6103ae565b604051610121919061168a565b60405180910390f35b34801561013657600080fd5b5061013f610444565b60405161014c91906116cc565b60405180910390f35b34801561016157600080fd5b5061016a61044c565b604051610177919061166e565b60405180910390f35b34801561018c57600080fd5b506101a760048036038101906101a291906114d5565b61052e565b6040516101b49190611653565b60405180910390f35b3480156101c957600080fd5b506101e460048036038101906101df9190611499565b61056b565b6040516101f191906116cc565b60405180910390f35b610214600480360381019061020f91906114d5565b61059c565b005b34801561022257600080fd5b5061022b6108d8565b60405161023891906116cc565b60405180910390f35b34801561024d57600080fd5b5061026860048036038101906102639190611470565b6108de565b60405161027591906116cc565b60405180910390f35b34801561028a57600080fd5b506102936108f6565b6040516102a091906116cc565b60405180910390f35b3480156102b557600080fd5b506102d060048036038101906102cb91906114d5565b610900565b6040516102dd9190611653565b60405180910390f35b3480156102f257600080fd5b506102fb610933565b60405161030891906116cc565b60405180910390f35b34801561031d57600080fd5b50610326610938565b60405161033391906116cc565b60405180910390f35b61034461093e565b005b34801561035257600080fd5b5061036d600480360381019061036891906114d5565b610b34565b60405161037a9190611653565b60405180910390f35b34801561038f57600080fd5b50610398610b73565b6040516103a591906116cc565b60405180910390f35b60606000808373ffffffffffffffffffffffffffffffffffffffff1673ffffffffffffffffffffffffffffffffffffffff16815260200190815260200160002080548060200260200160405190810160405280929190818152602001828054801561043857602002820191906000526020600020905b815481526020019060010190808311610424575b50505050509050919050565b600047905090565b6104546113c4565b60005b600a81101561052a57600073ffffffffffffffffffffffffffffffffffffffff166002600083815260200190815260200160002060009054906101000a900473ffffffffffffffffffffffffffffffffffffffff1673ffffffffffffffffffffffffffffffffffffffff1614610517576001816104d49190611769565b8282600a811061050d577f4e487b7100000000000000000000000000000000000000000000000000000000600052603260045260246000fd5b6020020181815250505b808061052290611886565b915050610457565b5090565b60006002600083815260200190815260200160002060009054906101000a900473ffffffffffffffffffffffffffffffffffffffff169050919050565b6000602052816000526040600020818154811061058757600080fd5b90600052602060002001600091509150505481565b600073ffffffffffffffffffffffffffffffffffffffff166002600083815260200190815260200160002060009054906101000a900473ffffffffffffffffffffffffffffffffffffffff1673ffffffffffffffffffffffffffffffffffffffff1614610635576040517f5afb4d4800000000000000000000000000000000000000000000000000000000815260040160405180910390fd5b60056000803373ffffffffffffffffffffffffffffffffffffffff1673ffffffffffffffffffffffffffffffffffffffff1681526020019081526020016000208054905014156106b1576040517f5488147300000000000000000000000000000000000000000000000000000000815260040160405180910390fd5b67016345785d8a000034146106f2576040517fc34dcda400000000000000000000000000000000000000000000000000000000815260040160405180910390fd5b6000811115806107025750600a81115b15610739576040517faeaddff100000000000000000000000000000000000000000000000000000000815260040160405180910390fd5b346004600082825461074b9190611769565b925050819055506000803373ffffffffffffffffffffffffffffffffffffffff1673ffffffffffffffffffffffffffffffffffffffff168152602001908152602001600020819080600181540180825580915050600190039060005260206000200160009091909190915055336002600083815260200190815260200160002060006101000a81548173ffffffffffffffffffffffffffffffffffffffff021916908373ffffffffffffffffffffffffffffffffffffffff1602179055506001339080600181540180825580915050600190039060005260206000200160009091909190916101000a81548173ffffffffffffffffffffffffffffffffffffffff021916908373ffffffffffffffffffffffffffffffffffffffff1602179055506108766006610b7f565b600a6108826006610b95565b141561089157610890610ba3565b5b803373ffffffffffffffffffffffffffffffffffffffff167f3618b0a7469bf1ba864e8b1926f16621c49ae96b79cdeb0e8acd0c6f0ec9236460405160405180910390a350565b60045481565b60036020528060005260406000206000915090505481565b6000600454905090565b60026020528060005260406000206000915054906101000a900473ffffffffffffffffffffffffffffffffffffffff1681565b600a81565b60055481565b6000600360003373ffffffffffffffffffffffffffffffffffffffff1673ffffffffffffffffffffffffffffffffffffffff16815260200190815260200160002054116109b7576040517f55ea9f6000000000000000000000000000000000000000000000000000000000815260040160405180910390fd5b6000600360003373ffffffffffffffffffffffffffffffffffffffff1673ffffffffffffffffffffffffffffffffffffffff1681526020019081526020016000205490506000600360003373ffffffffffffffffffffffffffffffffffffffff1673ffffffffffffffffffffffffffffffffffffffff1681526020019081526020016000208190555060003373ffffffffffffffffffffffffffffffffffffffff1682604051610a669061163e565b60006040518083038185875af1925050503d8060008114610aa3576040519150601f19603f3d011682016040523d82523d6000602084013e610aa8565b606091505b5050905080610aec576040517f08c379a0000000000000000000000000000000000000000000000000000000008152600401610ae3906116ac565b60405180910390fd5b813373ffffffffffffffffffffffffffffffffffffffff167f7fcf532c15f0a6db0bd6d0e038bea71d30d808c7d98cb3bf7268a95bf5081b6560405160405180910390a35050565b60018181548110610b4457600080fd5b906000526020600020016000915054906101000a900473ffffffffffffffffffffffffffffffffffffffff1681565b60068060000154905081565b6001816000016000828254019250508190555050565b600081600001549050919050565b6000610bad611244565b905060006001610bbb611244565b610bc59190611769565b905060006002610bd3611244565b610bdd9190611769565b9050600060405180606001604052806002600087815260200190815260200160002060009054906101000a900473ffffffffffffffffffffffffffffffffffffffff1673ffffffffffffffffffffffffffffffffffffffff1673ffffffffffffffffffffffffffffffffffffffff1681526020016002600086815260200190815260200160002060009054906101000a900473ffffffffffffffffffffffffffffffffffffffff1673ffffffffffffffffffffffffffffffffffffffff1673ffffffffffffffffffffffffffffffffffffffff1681526020016002600085815260200190815260200160002060009054906101000a900473ffffffffffffffffffffffffffffffffffffffff1673ffffffffffffffffffffffffffffffffffffffff1673ffffffffffffffffffffffffffffffffffffffff16815250905060326018600454610d2c91906117f0565b610d3691906117bf565b6003600083600060038110610d74577f4e487b7100000000000000000000000000000000000000000000000000000000600052603260045260246000fd5b602002015173ffffffffffffffffffffffffffffffffffffffff1673ffffffffffffffffffffffffffffffffffffffff1681526020019081526020016000206000828254610dc29190611769565b925050819055506032600d600454610dda91906117f0565b610de491906117bf565b6003600083600160038110610e22577f4e487b7100000000000000000000000000000000000000000000000000000000600052603260045260246000fd5b602002015173ffffffffffffffffffffffffffffffffffffffff1673ffffffffffffffffffffffffffffffffffffffff1681526020019081526020016000206000828254610e709190611769565b92505081905550601960048054610e8791906117f0565b610e9191906117bf565b6003600083600260038110610ecf577f4e487b7100000000000000000000000000000000000000000000000000000000600052603260045260246000fd5b602002015173ffffffffffffffffffffffffffffffffffffffff1673ffffffffffffffffffffffffffffffffffffffff1681526020019081526020016000206000828254610f1d9190611769565b92505081905550600a600454610f3391906117bf565b600581905550610f4161124d565b6003600082600060038110610f7f577f4e487b7100000000000000000000000000000000000000000000000000000000600052603260045260246000fd5b602002015173ffffffffffffffffffffffffffffffffffffffff1673ffffffffffffffffffffffffffffffffffffffff1681526020019081526020016000205481600060038110610ff9577f4e487b7100000000000000000000000000000000000000000000000000000000600052603260045260246000fd5b602002015173ffffffffffffffffffffffffffffffffffffffff167f9c2270628a9b29d30ae96b6c4c14ed646ee134febdce38a5b77f2bde9cea2e2060405160405180910390a3600360008260016003811061107e577f4e487b7100000000000000000000000000000000000000000000000000000000600052603260045260246000fd5b602002015173ffffffffffffffffffffffffffffffffffffffff1673ffffffffffffffffffffffffffffffffffffffff16815260200190815260200160002054816001600381106110f8577f4e487b7100000000000000000000000000000000000000000000000000000000600052603260045260246000fd5b602002015173ffffffffffffffffffffffffffffffffffffffff167f9c2270628a9b29d30ae96b6c4c14ed646ee134febdce38a5b77f2bde9cea2e2060405160405180910390a3600360008260026003811061117d577f4e487b7100000000000000000000000000000000000000000000000000000000600052603260045260246000fd5b602002015173ffffffffffffffffffffffffffffffffffffffff1673ffffffffffffffffffffffffffffffffffffffff16815260200190815260200160002054816002600381106111f7577f4e487b7100000000000000000000000000000000000000000000000000000000600052603260045260246000fd5b602002015173ffffffffffffffffffffffffffffffffffffffff167f9c2270628a9b29d30ae96b6c4c14ed646ee134febdce38a5b77f2bde9cea2e2060405160405180910390a350505050565b60006005905090565b600060048190555060005b60018054905081101561132657600080600183815481106112a2577f4e487b7100000000000000000000000000000000000000000000000000000000600052603260045260246000fd5b9060005260206000200160009054906101000a900473ffffffffffffffffffffffffffffffffffffffff1673ffffffffffffffffffffffffffffffffffffffff1673ffffffffffffffffffffffffffffffffffffffff168152602001908152602001600020600061131391906113e7565b808061131e90611886565b915050611258565b506000600190505b600a811161139c5760006002600083815260200190815260200160002060006101000a81548173ffffffffffffffffffffffffffffffffffffffff021916908373ffffffffffffffffffffffffffffffffffffffff160217905550808061139490611886565b91505061132e565b506113a760066113b7565b600160006113b59190611408565b565b6000816000018190555050565b604051806101400160405280600a90602082028036833780820191505090505090565b50805460008255906000526020600020908101906114059190611429565b50565b50805460008255906000526020600020908101906114269190611429565b50565b5b8082111561144257600081600090555060010161142a565b5090565b60008135905061145581611959565b92915050565b60008135905061146a81611970565b92915050565b60006020828403121561148257600080fd5b600061149084828501611446565b91505092915050565b600080604083850312156114ac57600080fd5b60006114ba85828601611446565b92505060206114cb8582860161145b565b9150509250929050565b6000602082840312156114e757600080fd5b60006114f58482850161145b565b91505092915050565b600061150a8383611620565b60208301905092915050565b61151f8161184a565b82525050565b61152e81611701565b6115388184611731565b9250611543826116e7565b8060005b8381101561157457815161155b87826114fe565b965061156683611717565b925050600181019050611547565b505050505050565b60006115878261170c565b611591818561173c565b935061159c836116f1565b8060005b838110156115cd5781516115b488826114fe565b97506115bf83611724565b9250506001810190506115a0565b5085935050505092915050565b60006115e7601283611758565b91506115f28261192d565b602082019050919050565b600061160a60008361174d565b915061161582611956565b600082019050919050565b6116298161187c565b82525050565b6116388161187c565b82525050565b6000611649826115fd565b9150819050919050565b60006020820190506116686000830184611516565b92915050565b6000610140820190506116846000830184611525565b92915050565b600060208201905081810360008301526116a4818461157c565b905092915050565b600060208201905081810360008301526116c5816115da565b9050919050565b60006020820190506116e1600083018461162f565b92915050565b6000819050919050565b6000819050602082019050919050565b6000600a9050919050565b600081519050919050565b6000602082019050919050565b6000602082019050919050565b600081905092915050565b600082825260208201905092915050565b600081905092915050565b600082825260208201905092915050565b60006117748261187c565b915061177f8361187c565b9250827fffffffffffffffffffffffffffffffffffffffffffffffffffffffffffffffff038211156117b4576117b36118cf565b5b828201905092915050565b60006117ca8261187c565b91506117d58361187c565b9250826117e5576117e46118fe565b5b828204905092915050565b60006117fb8261187c565b91506118068361187c565b9250817fffffffffffffffffffffffffffffffffffffffffffffffffffffffffffffffff048311821515161561183f5761183e6118cf565b5b828202905092915050565b60006118558261185c565b9050919050565b600073ffffffffffffffffffffffffffffffffffffffff82169050919050565b6000819050919050565b60006118918261187c565b91507fffffffffffffffffffffffffffffffffffffffffffffffffffffffffffffffff8214156118c4576118c36118cf565b5b600182019050919050565b7f4e487b7100000000000000000000000000000000000000000000000000000000600052601160045260246000fd5b7f4e487b7100000000000000000000000000000000000000000000000000000000600052601260045260246000fd5b7f5769746864726177616c206661696c65642e0000000000000000000000000000600082015250565b50565b6119628161184a565b811461196d57600080fd5b50565b6119798161187c565b811461198457600080fd5b5056fea26469706673582212204d89a689354bf3dfd287ca2049c0f16783973014775cec00cd59cf791eb1158c64736f6c63430008040033",
    "linkReferences": {},
    "deployedLinkReferences": {}
}