{
  "_format": "hh-sol-artifact-1",
  "contractName": "ProfitThePonzi",
  "sourceName": "contracts/ProfitThePonzi.sol",
  "abi": [
    {
      "inputs": [
        {
          "internalType": "uint64",
          "name": "subscriptionId",
          "type": "uint64"
        }
      ],
      "stateMutability": "nonpayable",
      "type": "constructor"
    },
    {
      "inputs": [],
      "name": "AccountIsNotAWinner",
      "type": "error"
    },
    {
      "inputs": [],
      "name": "AmountUnderMinBet",
      "type": "error"
    },
    {
      "inputs": [],
      "name": "InvalidTicketNumber",
      "type": "error"
    },
    {
      "inputs": [],
      "name": "LotteryNumberAlreadySold",
      "type": "error"
    },
    {
      "inputs": [],
      "name": "MaxAmountOfTickets",
      "type": "error"
    },
    {
      "inputs": [
        {
          "internalType": "address",
          "name": "have",
          "type": "address"
        },
        {
          "internalType": "address",
          "name": "want",
          "type": "address"
        }
      ],
      "name": "OnlyCoordinatorCanFulfill",
      "type": "error"
    },
    {
      "anonymous": false,
      "inputs": [
        {
          "indexed": true,
          "internalType": "uint256",
          "name": "_lotteryId",
          "type": "uint256"
        },
        {
          "indexed": true,
          "internalType": "address",
          "name": "buyer",
          "type": "address"
        },
        {
          "indexed": true,
          "internalType": "uint256",
          "name": "ticketNumber",
          "type": "uint256"
        }
      ],
      "name": "BoughtTicket",
      "type": "event"
    },
    {
      "anonymous": false,
      "inputs": [
        {
          "indexed": true,
          "internalType": "uint256",
          "name": "newLotteryId",
          "type": "uint256"
        }
      ],
      "name": "NewLotteryStarted",
      "type": "event"
    },
    {
      "anonymous": false,
      "inputs": [
        {
          "indexed": true,
          "internalType": "uint256",
          "name": "_lotteryId",
          "type": "uint256"
        },
        {
          "indexed": false,
          "internalType": "uint256",
          "name": "_superJackpot",
          "type": "uint256"
        }
      ],
      "name": "SuperJackpot",
      "type": "event"
    },
    {
      "anonymous": false,
      "inputs": [
        {
          "indexed": true,
          "internalType": "uint256",
          "name": "_lotteryId",
          "type": "uint256"
        },
        {
          "indexed": true,
          "internalType": "address",
          "name": "winner",
          "type": "address"
        },
        {
          "indexed": true,
          "internalType": "uint256",
          "name": "vaultAmount",
          "type": "uint256"
        }
      ],
      "name": "Winner",
      "type": "event"
    },
    {
      "anonymous": false,
      "inputs": [
        {
          "indexed": true,
          "internalType": "address",
          "name": "winner",
          "type": "address"
        },
        {
          "indexed": true,
          "internalType": "uint256",
          "name": "amountWitdrawed",
          "type": "uint256"
        }
      ],
      "name": "Withdrawal",
      "type": "event"
    },
    {
      "inputs": [],
      "name": "amountOfTickets",
      "outputs": [
        {
          "internalType": "uint256",
          "name": "",
          "type": "uint256"
        }
      ],
      "stateMutability": "view",
      "type": "function"
    },
    {
      "inputs": [
        {
          "internalType": "uint256",
          "name": "_ticketNumber",
          "type": "uint256"
        }
      ],
      "name": "buyTicket",
      "outputs": [],
      "stateMutability": "payable",
      "type": "function"
    },
    {
      "inputs": [
        {
          "internalType": "uint256",
          "name": "_ticketNumber",
          "type": "uint256"
        }
      ],
      "name": "buyerOfTicket",
      "outputs": [
        {
          "internalType": "address",
          "name": "",
          "type": "address"
        }
      ],
      "stateMutability": "view",
      "type": "function"
    },
    {
      "inputs": [],
      "name": "getContractBalance",
      "outputs": [
        {
          "internalType": "uint256",
          "name": "",
          "type": "uint256"
        }
      ],
      "stateMutability": "view",
      "type": "function"
    },
    {
      "inputs": [],
      "name": "getJackpot",
      "outputs": [
        {
          "internalType": "uint256",
          "name": "",
          "type": "uint256"
        }
      ],
      "stateMutability": "view",
      "type": "function"
    },
    {
      "inputs": [
        {
          "internalType": "address",
          "name": "_owner",
          "type": "address"
        }
      ],
      "name": "getTicketsBoughtBy",
      "outputs": [
        {
          "internalType": "uint256[4]",
          "name": "_tickets",
          "type": "uint256[4]"
        }
      ],
      "stateMutability": "view",
      "type": "function"
    },
    {
      "inputs": [],
      "name": "getTicketsSold",
      "outputs": [
        {
          "internalType": "uint256[4]",
          "name": "_tickets",
          "type": "uint256[4]"
        }
      ],
      "stateMutability": "view",
      "type": "function"
    },
    {
      "inputs": [],
      "name": "jackpot",
      "outputs": [
        {
          "internalType": "uint256",
          "name": "",
          "type": "uint256"
        }
      ],
      "stateMutability": "view",
      "type": "function"
    },
    {
      "inputs": [],
      "name": "lotteryId",
      "outputs": [
        {
          "internalType": "uint256",
          "name": "_value",
          "type": "uint256"
        }
      ],
      "stateMutability": "view",
      "type": "function"
    },
    {
      "inputs": [
        {
          "internalType": "address",
          "name": "",
          "type": "address"
        }
      ],
      "name": "pendingWinners",
      "outputs": [
        {
          "internalType": "uint256",
          "name": "",
          "type": "uint256"
        }
      ],
      "stateMutability": "view",
      "type": "function"
    },
    {
      "inputs": [
        {
          "internalType": "uint256",
          "name": "requestId",
          "type": "uint256"
        },
        {
          "internalType": "uint256[]",
          "name": "randomWords",
          "type": "uint256[]"
        }
      ],
      "name": "rawFulfillRandomWords",
      "outputs": [],
      "stateMutability": "nonpayable",
      "type": "function"
    },
    {
      "inputs": [],
      "name": "retrieveLoot",
      "outputs": [],
      "stateMutability": "payable",
      "type": "function"
    },
    {
      "inputs": [
        {
          "internalType": "uint256",
          "name": "",
          "type": "uint256"
        }
      ],
      "name": "s_randomWords",
      "outputs": [
        {
          "internalType": "uint256",
          "name": "",
          "type": "uint256"
        }
      ],
      "stateMutability": "view",
      "type": "function"
    },
    {
      "inputs": [],
      "name": "s_requestId",
      "outputs": [
        {
          "internalType": "uint256",
          "name": "",
          "type": "uint256"
        }
      ],
      "stateMutability": "view",
      "type": "function"
    },
    {
      "inputs": [],
      "name": "soldTicketsCounter",
      "outputs": [
        {
          "internalType": "uint256",
          "name": "_value",
          "type": "uint256"
        }
      ],
      "stateMutability": "view",
      "type": "function"
    },
    {
      "inputs": [],
      "name": "superJackpot",
      "outputs": [
        {
          "internalType": "uint256",
          "name": "",
          "type": "uint256"
        }
      ],
      "stateMutability": "view",
      "type": "function"
    },
    {
      "inputs": [
        {
          "internalType": "uint256",
          "name": "",
          "type": "uint256"
        }
      ],
      "name": "ticketOwners",
      "outputs": [
        {
          "internalType": "address",
          "name": "",
          "type": "address"
        }
      ],
      "stateMutability": "view",
      "type": "function"
    },
    {
      "inputs": [],
      "name": "ticketPrice",
      "outputs": [
        {
          "internalType": "uint256",
          "name": "",
          "type": "uint256"
        }
      ],
      "stateMutability": "view",
      "type": "function"
    }
  ],
  "bytecode": "0x60a0604052736168499c0cffcacd319c818142124b7a15e857ab600160006101000a81548173ffffffffffffffffffffffffffffffffffffffff021916908373ffffffffffffffffffffffffffffffffffffffff1602179055507fd89b2bf150e3b9e13446986e571fb9cab24b13cea0a43ea20a6049a85cc807cc60001b600255621e8480600360006101000a81548163ffffffff021916908363ffffffff16021790555060038060046101000a81548161ffff021916908361ffff160217905550348015620000ce57600080fd5b506040516200221a3803806200221a8339818101604052810190620000f49190620001f8565b600160009054906101000a900473ffffffffffffffffffffffffffffffffffffffff168073ffffffffffffffffffffffffffffffffffffffff1660808173ffffffffffffffffffffffffffffffffffffffff1660601b8152505050600160009054906101000a900473ffffffffffffffffffffffffffffffffffffffff166000806101000a81548173ffffffffffffffffffffffffffffffffffffffff021916908373ffffffffffffffffffffffffffffffffffffffff16021790555080600060146101000a81548167ffffffffffffffff021916908367ffffffffffffffff1602179055505062000252565b600081519050620001f28162000238565b92915050565b6000602082840312156200020b57600080fd5b60006200021b84828501620001e1565b91505092915050565b600067ffffffffffffffff82169050919050565b620002438162000224565b81146200024f57600080fd5b50565b60805160601c611fa26200027860003960008181610449015261049d0152611fa26000f3fe6080604052600436106101095760003560e01c8063e580f47b11610095578063ebcb42ed11610064578063ebcb42ed14610362578063f408ed6c1461039f578063f6c9ad38146103ca578063f6eaffc8146103d4578063fb3c46bb1461041157610109565b8063e580f47b146102a4578063e886cd14146102cf578063e89e106a146102fa578063eb2dbcf61461032557610109565b806367dd74ca116100dc57806367dd74ca146101ca5780636b31ee01146101e65780636f9fb98a146102115780639226b0ff1461023c5780639329066c1461027957610109565b80631209b1f61461010e5780631fe543e3146101395780633e0a51d414610162578063520198a81461019f575b600080fd5b34801561011a57600080fd5b5061012361043c565b6040516101309190611b3e565b60405180910390f35b34801561014557600080fd5b50610160600480360381019061015b91906118d6565b610447565b005b34801561016e57600080fd5b5061018960048036038101906101849190611884565b610507565b6040516101969190611a6c565b60405180910390f35b3480156101ab57600080fd5b506101b4610578565b6040516101c19190611ab0565b60405180910390f35b6101e460048036038101906101df9190611884565b610682565b005b3480156101f257600080fd5b506101fb61092a565b6040516102089190611b3e565b60405180910390f35b34801561021d57600080fd5b50610226610930565b6040516102339190611b3e565b60405180910390f35b34801561024857600080fd5b50610263600480360381019061025e919061185b565b610938565b6040516102709190611b3e565b60405180910390f35b34801561028557600080fd5b5061028e610950565b60405161029b9190611b3e565b60405180910390f35b3480156102b057600080fd5b506102b961095a565b6040516102c69190611b3e565b60405180910390f35b3480156102db57600080fd5b506102e4610966565b6040516102f19190611b3e565b60405180910390f35b34801561030657600080fd5b5061030f61096b565b60405161031c9190611b3e565b60405180910390f35b34801561033157600080fd5b5061034c60048036038101906103479190611884565b610971565b6040516103599190611a6c565b60405180910390f35b34801561036e57600080fd5b506103896004803603810190610384919061185b565b6109a7565b6040516103969190611ab0565b60405180910390f35b3480156103ab57600080fd5b506103b4610ab3565b6040516103c19190611b3e565b60405180910390f35b6103d2610ab9565b005b3480156103e057600080fd5b506103fb60048036038101906103f69190611884565b610caf565b6040516104089190611b3e565b60405180910390f35b34801561041d57600080fd5b50610426610cd3565b6040516104339190611b3e565b60405180910390f35b662386f26fc1000081565b7f000000000000000000000000000000000000000000000000000000000000000073ffffffffffffffffffffffffffffffffffffffff163373ffffffffffffffffffffffffffffffffffffffff16146104f957337f00000000000000000000000000000000000000000000000000000000000000006040517f1cf993f40000000000000000000000000000000000000000000000000000000081526004016104f0929190611a87565b60405180910390fd5b6105038282610cdf565b5050565b600060066001836105189190611cd4565b6004811061054f577f4e487b7100000000000000000000000000000000000000000000000000000000600052603260045260246000fd5b0160009054906101000a900473ffffffffffffffffffffffffffffffffffffffff169050919050565b610580611748565b60005b600481101561067e57600073ffffffffffffffffffffffffffffffffffffffff16600682600481106105de577f4e487b7100000000000000000000000000000000000000000000000000000000600052603260045260246000fd5b0160009054906101000a900473ffffffffffffffffffffffffffffffffffffffff1673ffffffffffffffffffffffffffffffffffffffff161461066b576001816106289190611bf3565b828260048110610661577f4e487b7100000000000000000000000000000000000000000000000000000000600052603260045260246000fd5b6020020181815250505b808061067690611dd0565b915050610583565b5090565b6000811115806106925750600481115b156106c9576040517faeaddff100000000000000000000000000000000000000000000000000000000815260040160405180910390fd5b600073ffffffffffffffffffffffffffffffffffffffff1660066001836106f09190611cd4565b60048110610727577f4e487b7100000000000000000000000000000000000000000000000000000000600052603260045260246000fd5b0160009054906101000a900473ffffffffffffffffffffffffffffffffffffffff1673ffffffffffffffffffffffffffffffffffffffff1614610796576040517f5afb4d4800000000000000000000000000000000000000000000000000000000815260040160405180910390fd5b61079f33610cec565b6107d5576040517f5488147300000000000000000000000000000000000000000000000000000000815260040160405180910390fd5b662386f26fc100003414610815576040517fc34dcda400000000000000000000000000000000000000000000000000000000815260040160405180910390fd5b34600c60008282546108279190611bf3565b9250508190555033600660018361083e9190611cd4565b60048110610875577f4e487b7100000000000000000000000000000000000000000000000000000000600052603260045260246000fd5b0160006101000a81548173ffffffffffffffffffffffffffffffffffffffff021916908373ffffffffffffffffffffffffffffffffffffffff1602179055506108be600a610dd3565b803373ffffffffffffffffffffffffffffffffffffffff166108e0600b610de9565b7fccad0280ccafddab656a5e677bdd9410b465bf9abcec44b45b26de4548cd59ee60405160405180910390a46004610918600a610de9565b141561092757610926610df7565b5b50565b600c5481565b600047905090565b600e6020528060005260406000206000915090505481565b6000600c54905090565b600b8060000154905081565b600481565b60055481565b6006816004811061098157600080fd5b016000915054906101000a900473ffffffffffffffffffffffffffffffffffffffff1681565b6109af611748565b60005b6004811015610aad578273ffffffffffffffffffffffffffffffffffffffff1660068260048110610a0c577f4e487b7100000000000000000000000000000000000000000000000000000000600052603260045260246000fd5b0160009054906101000a900473ffffffffffffffffffffffffffffffffffffffff1673ffffffffffffffffffffffffffffffffffffffff161415610a9a57600181610a579190611bf3565b828260048110610a90577f4e487b7100000000000000000000000000000000000000000000000000000000600052603260045260246000fd5b6020020181815250505b8080610aa590611dd0565b9150506109b2565b50919050565b600d5481565b6000600e60003373ffffffffffffffffffffffffffffffffffffffff1673ffffffffffffffffffffffffffffffffffffffff1681526020019081526020016000205411610b32576040517f55ea9f6000000000000000000000000000000000000000000000000000000000815260040160405180910390fd5b6000600e60003373ffffffffffffffffffffffffffffffffffffffff1673ffffffffffffffffffffffffffffffffffffffff1681526020019081526020016000205490506000600e60003373ffffffffffffffffffffffffffffffffffffffff1673ffffffffffffffffffffffffffffffffffffffff1681526020019081526020016000208190555060003373ffffffffffffffffffffffffffffffffffffffff1682604051610be190611a57565b60006040518083038185875af1925050503d8060008114610c1e576040519150601f19603f3d011682016040523d82523d6000602084013e610c23565b606091505b5050905080610c67576040517f08c379a0000000000000000000000000000000000000000000000000000000008152600401610c5e90611b1e565b60405180910390fd5b813373ffffffffffffffffffffffffffffffffffffffff167f7fcf532c15f0a6db0bd6d0e038bea71d30d808c7d98cb3bf7268a95bf5081b6560405160405180910390a35050565b60048181548110610cbf57600080fd5b906000526020600020016000915090505481565b600a8060000154905081565b610ce881610eed565b5050565b6000806000905060005b6004811015610dc7578373ffffffffffffffffffffffffffffffffffffffff1660068260048110610d50577f4e487b7100000000000000000000000000000000000000000000000000000000600052603260045260246000fd5b0160009054906101000a900473ffffffffffffffffffffffffffffffffffffffff1673ffffffffffffffffffffffffffffffffffffffff161415610db4578180610d9990611e19565b92505060058260ff161415610db357600092505050610dce565b5b8080610dbf90611dd0565b915050610cf6565b5060019150505b919050565b6001816000016000828254019250508190555050565b600081600001549050919050565b60008054906101000a900473ffffffffffffffffffffffffffffffffffffffff1673ffffffffffffffffffffffffffffffffffffffff16635d3b1d30600254600060149054906101000a900467ffffffffffffffff16600360049054906101000a900461ffff16600360009054906101000a900463ffffffff1660016040518663ffffffff1660e01b8152600401610e93959493929190611acb565b602060405180830381600087803b158015610ead57600080fd5b505af1158015610ec1573d6000803e3d6000fd5b505050506040513d601f19601f82011682018060405250810190610ee591906118ad565b600581905550565b60006001600483600081518110610f2d577f4e487b7100000000000000000000000000000000000000000000000000000000600052603260045260246000fd5b6020026020010151610f3f9190611e43565b610f499190611bf3565b905060006001600484600181518110610f8b577f4e487b7100000000000000000000000000000000000000000000000000000000600052603260045260246000fd5b6020026020010151610f9d9190611e43565b610fa79190611bf3565b905060006001600485600281518110610fe9577f4e487b7100000000000000000000000000000000000000000000000000000000600052603260045260246000fd5b6020026020010151610ffb9190611e43565b6110059190611bf3565b905060006005611015600b610de9565b61101f9190611e43565b141561108c57600d54600c60008282546110399190611bf3565b925050819055506000600d81905550611052600b610de9565b7f2e34d1f5f3952891cd0f54ba7d8cafe4c6f94d6cae31617e2288df19764fff75600c546040516110839190611b3e565b60405180910390a25b60326018600c5461109d9190611c7a565b6110a79190611c49565b600e6000600686600481106110e5577f4e487b7100000000000000000000000000000000000000000000000000000000600052603260045260246000fd5b0160009054906101000a900473ffffffffffffffffffffffffffffffffffffffff1673ffffffffffffffffffffffffffffffffffffffff1673ffffffffffffffffffffffffffffffffffffffff16815260200190815260200160002060008282546111509190611bf3565b925050819055506032600d600c546111689190611c7a565b6111729190611c49565b600e6000600685600481106111b0577f4e487b7100000000000000000000000000000000000000000000000000000000600052603260045260246000fd5b0160009054906101000a900473ffffffffffffffffffffffffffffffffffffffff1673ffffffffffffffffffffffffffffffffffffffff1673ffffffffffffffffffffffffffffffffffffffff168152602001908152602001600020600082825461121b9190611bf3565b9250508190555060196004600c546112339190611c7a565b61123d9190611c49565b600e60006006846004811061127b577f4e487b7100000000000000000000000000000000000000000000000000000000600052603260045260246000fd5b0160009054906101000a900473ffffffffffffffffffffffffffffffffffffffff1673ffffffffffffffffffffffffffffffffffffffff1673ffffffffffffffffffffffffffffffffffffffff16815260200190815260200160002060008282546112e69190611bf3565b92505081905550600a600c546112fc9190611c49565b600d81905550600e600060068560048110611340577f4e487b7100000000000000000000000000000000000000000000000000000000600052603260045260246000fd5b0160009054906101000a900473ffffffffffffffffffffffffffffffffffffffff1673ffffffffffffffffffffffffffffffffffffffff1673ffffffffffffffffffffffffffffffffffffffff16815260200190815260200160002054600684600481106113d7577f4e487b7100000000000000000000000000000000000000000000000000000000600052603260045260246000fd5b0160009054906101000a900473ffffffffffffffffffffffffffffffffffffffff1673ffffffffffffffffffffffffffffffffffffffff16611419600b610de9565b7f1c2ae1f7e99dbbbfe25aac964f3889ea68259d88b74709f53037a6fb930bb02a60405160405180910390a4600e600060068460048110611483577f4e487b7100000000000000000000000000000000000000000000000000000000600052603260045260246000fd5b0160009054906101000a900473ffffffffffffffffffffffffffffffffffffffff1673ffffffffffffffffffffffffffffffffffffffff1673ffffffffffffffffffffffffffffffffffffffff168152602001908152602001600020546006836004811061151a577f4e487b7100000000000000000000000000000000000000000000000000000000600052603260045260246000fd5b0160009054906101000a900473ffffffffffffffffffffffffffffffffffffffff1673ffffffffffffffffffffffffffffffffffffffff1661155c600b610de9565b7f1c2ae1f7e99dbbbfe25aac964f3889ea68259d88b74709f53037a6fb930bb02a60405160405180910390a4600e6000600683600481106115c6577f4e487b7100000000000000000000000000000000000000000000000000000000600052603260045260246000fd5b0160009054906101000a900473ffffffffffffffffffffffffffffffffffffffff1673ffffffffffffffffffffffffffffffffffffffff1673ffffffffffffffffffffffffffffffffffffffff168152602001908152602001600020546006826004811061165d577f4e487b7100000000000000000000000000000000000000000000000000000000600052603260045260246000fd5b0160009054906101000a900473ffffffffffffffffffffffffffffffffffffffff1673ffffffffffffffffffffffffffffffffffffffff1661169f600b610de9565b7f1c2ae1f7e99dbbbfe25aac964f3889ea68259d88b74709f53037a6fb930bb02a60405160405180910390a46116d36116d9565b50505050565b6000600c81905550600660006116ef919061176a565b6116f9600a61173b565b611703600b610dd3565b61170d600b610de9565b7f9e157affda43e17eef8b86763820bcb49bf2a976a0a0292b27fcbe249cc5f55560405160405180910390a2565b6000816000018190555050565b6040518060800160405280600490602082028036833780820191505090505090565b5060008155600101600081556001016000815560010160009055565b600061179961179484611b7e565b611b59565b905080838252602082019050828560208602820111156117b857600080fd5b60005b858110156117e857816117ce8882611831565b8452602084019350602083019250506001810190506117bb565b5050509392505050565b60008135905061180181611f3e565b92915050565b600082601f83011261181857600080fd5b8135611828848260208601611786565b91505092915050565b60008135905061184081611f55565b92915050565b60008151905061185581611f55565b92915050565b60006020828403121561186d57600080fd5b600061187b848285016117f2565b91505092915050565b60006020828403121561189657600080fd5b60006118a484828501611831565b91505092915050565b6000602082840312156118bf57600080fd5b60006118cd84828501611846565b91505092915050565b600080604083850312156118e957600080fd5b60006118f785828601611831565b925050602083013567ffffffffffffffff81111561191457600080fd5b61192085828601611807565b9150509250929050565b60006119368383611a1b565b60208301905092915050565b61194b81611d08565b82525050565b61195a81611bb4565b6119648184611bcc565b925061196f82611baa565b8060005b838110156119a0578151611987878261192a565b965061199283611bbf565b925050600181019050611973565b505050505050565b6119b181611d1a565b82525050565b6119c081611d8d565b82525050565b60006119d3601283611be2565b91506119de82611f12565b602082019050919050565b60006119f6600083611bd7565b9150611a0182611f3b565b600082019050919050565b611a1581611d24565b82525050565b611a2481611d52565b82525050565b611a3381611d52565b82525050565b611a4281611d5c565b82525050565b611a5181611d6c565b82525050565b6000611a62826119e9565b9150819050919050565b6000602082019050611a816000830184611942565b92915050565b6000604082019050611a9c6000830185611942565b611aa96020830184611942565b9392505050565b6000608082019050611ac56000830184611951565b92915050565b600060a082019050611ae060008301886119a8565b611aed6020830187611a48565b611afa6040830186611a0c565b611b076060830185611a39565b611b1460808301846119b7565b9695505050505050565b60006020820190508181036000830152611b37816119c6565b9050919050565b6000602082019050611b536000830184611a2a565b92915050565b6000611b63611b74565b9050611b6f8282611d9f565b919050565b6000604051905090565b600067ffffffffffffffff821115611b9957611b98611ed2565b5b602082029050602081019050919050565b6000819050919050565b600060049050919050565b6000602082019050919050565b600081905092915050565b600081905092915050565b600082825260208201905092915050565b6000611bfe82611d52565b9150611c0983611d52565b9250827fffffffffffffffffffffffffffffffffffffffffffffffffffffffffffffffff03821115611c3e57611c3d611e74565b5b828201905092915050565b6000611c5482611d52565b9150611c5f83611d52565b925082611c6f57611c6e611ea3565b5b828204905092915050565b6000611c8582611d52565b9150611c9083611d52565b9250817fffffffffffffffffffffffffffffffffffffffffffffffffffffffffffffffff0483118215151615611cc957611cc8611e74565b5b828202905092915050565b6000611cdf82611d52565b9150611cea83611d52565b925082821015611cfd57611cfc611e74565b5b828203905092915050565b6000611d1382611d32565b9050919050565b6000819050919050565b600061ffff82169050919050565b600073ffffffffffffffffffffffffffffffffffffffff82169050919050565b6000819050919050565b600063ffffffff82169050919050565b600067ffffffffffffffff82169050919050565b600060ff82169050919050565b6000611d9882611d5c565b9050919050565b611da882611f01565b810181811067ffffffffffffffff82111715611dc757611dc6611ed2565b5b80604052505050565b6000611ddb82611d52565b91507fffffffffffffffffffffffffffffffffffffffffffffffffffffffffffffffff821415611e0e57611e0d611e74565b5b600182019050919050565b6000611e2482611d80565b915060ff821415611e3857611e37611e74565b5b600182019050919050565b6000611e4e82611d52565b9150611e5983611d52565b925082611e6957611e68611ea3565b5b828206905092915050565b7f4e487b7100000000000000000000000000000000000000000000000000000000600052601160045260246000fd5b7f4e487b7100000000000000000000000000000000000000000000000000000000600052601260045260246000fd5b7f4e487b7100000000000000000000000000000000000000000000000000000000600052604160045260246000fd5b6000601f19601f8301169050919050565b7f5769746864726177616c206661696c65642e0000000000000000000000000000600082015250565b50565b611f4781611d08565b8114611f5257600080fd5b50565b611f5e81611d52565b8114611f6957600080fd5b5056fea2646970667358221220c754b3c16f3e5eecebf07f95ace498ac1fd210a610e4cd895e6cf37ed5bf78f864736f6c63430008040033",
  "linkReferences": {},
  "deployedLinkReferences": {}
}